:10000000C2C00000DCC00000DAC00000D8C00000A0
:10001000D6C00000D4C00000D2C00000D0C0000094
:10002000CEC00000CCC000007AC60000C8C00000EE
:10003000C6C00000C4C00000C2C00000C0C00000B4
:10004000BEC00000BCC00000BAC00000B8C00000C4
:10005000B6C00000B4C00000B2C00000B0C00000D4
:10006000AEC00000ACC00000AAC00000A8C00000E4
:10007000A6C00000A4C00000A2C00000A0C00000F4
:100080009EC000009CC000009AC0000098C0000004
:1000900096C0000094C0000092C0000090C0000014
:1000A0008EC000008CC000008AC000000501090558
:1000B000A1011500250135004501750195100509BF
:1000C00019012910810205012507463B0175049598
:1000D0000165140939814265009501810126FF00FF
:1000E00046FF000930093109320935750895048148
:1000F000020600FF0920950181020A212695089138
:1001000002C012010002000000400D0F9200000129
:10011000010200010902290001010080FA0904001E
:10012000000203000000092111010001225600070E
:10013000050203400005070581034000050403098B
:10014000041C0348004F0052004900200043004FA8
:10015000002E002C004C00540044002E000000240F
:100160000350004F004B004B0045004E0020004361
:10017000004F004E00540052004F004C004C004510
:1001800000520000000011241FBECFEFDAE0DEBFF6
:10019000CDBF11E0A0E0B1E0E4EDF1E102C00590D7
:1001A0000D92AE30B107D9F711E0AEE0B1E001C079
:1001B0001D92A332B107E1F7B1D20C94E80820CF29
:1001C0000895089588E0EEE0F1E0DF01982F1D9298
:1001D0009A95E9F790E8909311019093120190930A
:1001E0001301909314018093100110920F0110924B
:1001F0000E01089597FF02C080E0089588319105AF
:1002000009F472C1893191050CF070C08B309105F1
:1002100009F425C18C309105A4F58530910509F4C8
:10022000FAC086309105B4F48230910509F4DDC03E
:10023000833091053CF4009709F4CDC0019709F093
:10024000A5C1CDC08330910509F4D9C0049709F048
:100250009DC1DBC08830910509F4EFC0893091055C
:1002600044F48630910509F4DCC0079709F08EC18B
:10027000DEC08930910509F4E6C00A9709F086C10D
:10028000E8C08131910509F40EC182319105BCF4B9
:100290008E30910509F4F5C08F30910544F48C300F
:1002A000910509F4E2C00D9709F070C1E4C08F30E8
:1002B000910509F4ECC0409709F068C1EEC08431A3
:1002C000910509F402C18531910544F4823191050B
:1002D00009F4EFC0439709F059C1F1C08631910587
:1002E00009F402C147970CF0F9C0F5C085329105B9
:1002F00009F42EC186329105ACF58E31910509F4D1
:10030000FDC08F319105BCF48B31910509F4EAC031
:100310008C31910544F48931910509F4E1C04A9783
:1003200009F034C1E1C08C31910509F4DDC04D976D
:1003300009F02CC1DDC08132910509F4F1C082328F
:10034000910544F48F31910509F4DEC0809709F0DE
:100350001DC1E0C08332910509F4EEC084970CF012
:10036000F1C0E4C08B32910509F4FBC08C329105D9
:10037000BCF48832910509F4FDC08932910544F43A
:100380008632910509F4E7C0879709F0FFC0E5C000
:100390008932910509F4F1C08A9709F0F7C0EFC0DE
:1003A0008E32910509F4E6C08F32910544F48C3207
:1003B000910509F4D9C08D9709F0E8C0D7C0803302
:1003C000910509F4DCC0803391050CF4D6C0C197C7
:1003D00009F0DCC0D8C080E091E0EDD6D5C08091B6
:1003E0000E0190910F01846005C080910E019091E3
:1003F0000F018B7F90930F0180930E01C5C08091F8
:100400000E0190910F018260F5CF80910E019091C5
:100410000F018D7FEFCF80910E0190910F018860C9
:10042000E9CF80910E0190910F01877FE3CF8091FA
:100430000E0190910F018160DDCF80910E019091AE
:100440000F018E7FD7CF80910E0190910F018061B7
:10045000D1CF80910E0190910F018F7ECBCF8091F3
:100460000E0190910F018062C5CF80910E01909195
:100470000F018F7DBFCF80910E0190910F0180649D
:10048000B9CF80910E0190910F018F7BB3CF8091F6
:100490000E0190910F018068ADCF80910E01909177
:1004A0000F018F77A7CF80910E0190910F0194607B
:1004B000A1CF80910E0190910F019B7F9BCF8091E6
:1004C0000E0190910F01986095CF80910E0190914F
:1004D0000F01977F8FCF1092100156C084E005C0A6
:1004E00086E003C082E001C088E0809310014CC028
:1004F00080910E0190910F0192607CCF80910E014E
:1005000090910F019D7F76CF80910E0190910F0108
:10051000916070CF80910E0190910F019E7F6ACF04
:1005200080910E0190910F01906164CF80910E0136
:1005300090910F019F7E5ECF80910E0190910F01EF
:10054000906258CF80910E0190910F019F7D52CF04
:100550001092110119C08FEF01C080E88093110142
:1005600013C01092130110C08FEF01C080E8809378
:1005700013010AC01092120107C08FEF01C080E87A
:100580008093120101C01EDE81E008958BE091E0AE
:1005900012D681E008958091C80087FF0DC0809138
:1005A000C80087FD03C08FEF9FEF03C08091CE008E
:1005B00090E020DE882399F70895DF93CF93CDB79D
:1005C000DEB728970FB6F894DEBF0FBECDBF80917F
:1005D0001A01843099F582E08093E9008091E80067
:1005E00082FF10C08091E80085FF07C0CE01019610
:1005F00067E070E040E050E002D28091E8008B7745
:100600008093E80081E08093E9008091E80080FF1A
:1006100015C0DE011196EEE0F1E088E001900D9248
:100620008150E1F7CE01019668E070E040E050E0D3
:1006300038D28091E8008E778093E80028960FB634
:10064000F894DEBF0FBECDBFCF91DF910895DF9349
:10065000CF93CDB7DEB728970FB6F894DEBF0FBEA5
:10066000CDBF80911C01813019F0893079F51BC014
:1006700080911B01813A51F5DE011196EEE0F1E027
:1006800088E001900D928150E1F78091E800877F2A
:100690008093E800CE01019668E070E095D08091EB
:1006A000E8008B7711C080911B01813279F4809131
:1006B000E800877F8093E800CE01019667E070E054
:1006C000EDD08091E8008E778093E80028960FB6F1
:1006D000F894DEBF0FBECDBFCF91DF91089582E0C9
:1006E00060EC42E330D281E061EC42E32CC284B79B
:1006F000877F84BF88E10FB6F894809360001092E2
:1007000060000FBE80E090E020E80FB6F8942093E0
:100710006100809361000FBEE5D254CD87E690E082
:100720009093CD008093CC0086E08093CA00109215
:10073000C80088E18093C900539A5A9AD8DF789408
:100740002ADF3BDF23D5FCCFDA019330B1F09430C0
:1007500028F4913041F0923079F50AC0913211F1CC
:10076000923251F524C0E2E0F1E022E130E028C00D
:10077000E4E1F1E029E230E023C0813049F081304A
:1007800018F08230C9F40AC0EDE3F1E0849103C0AF
:10079000E1E4F1E08491282F30E012C0EFE5F1E0D0
:1007A0008491F9CFE6E2F1E029E030E009C0ECEA1B
:1007B000F0E026E530E004C0E0E0F0E020E030E0EA
:1007C000ED93FC93C90108959C0140912101509142
:1007D00022014617570718F4F90190E043C061154C
:1007E000710511F0AB01F8CF8091E8008E7780930E
:1007F000E80040E050E0F0CF80911A01882309F42E
:1008000047C0853009F446C08091E80083FD44C0AC
:100810008091E80082FD36C08091E80080FF22C010
:100820008091F3009091F200782F60E0292F30E062
:10083000262B372B07C081918093F1004150504007
:100840002F5F3F4F4115510519F02034310598F3C2
:1008500090E02034310509F491E08091E8008E7732
:100860008093E8004115510539F6992329F60AC00D
:1008700080911A01882361F0853061F08091E80051
:1008800083FD0AC08091E80082FFF2CF80E00895E6
:1008900082E0089583E0089581E008959C01611548
:1008A000710529F48091E8008B778093E800F901C5
:1008B00027C080911A01882399F1853099F18091A0
:1008C000E80083FF02C081E008958091E80082FF84
:1008D000F0CF06C08091F10081936150704059F0D3
:1008E0002091F3008091F200322F20E090E0822BE3
:1008F000932B892B79F78091E8008B778093E80020
:1009000061157105B1F606C080911A01882341F086
:10091000853041F08091E80080FFF6CF80E00895B7
:1009200082E0089583E008959C0140912101509157
:1009300022014617570718F4F90190E044C06115E9
:10094000710511F0AB01F8CF8091E8008E778093AC
:10095000E80040E050E0F0CF80911A01882309F4CC
:1009600048C0853009F447C08091E80083FD45C048
:100970008091E80082FD37C08091E80080FF23C0AD
:100980008091F3009091F200782F60E0292F30E001
:10099000262B372B08C084918093F100319641506B
:1009A00050402F5F3F4F4115510519F0203431055C
:1009B00090F390E02034310509F491E08091E80053
:1009C0008E778093E8004115510531F6992321F681
:1009D0000AC080911A01882361F0853061F080910E
:1009E000E80083FD0AC08091E80082FFF2CF80E03A
:1009F000089582E0089583E0089581E00895BF920C
:100A0000CF92DF92EF92FF920F931F93CF93DF93DA
:100A1000182F092F7B016A01EFD0B82E8823B1F57A
:100A2000812F902F9C01E901C114D10439F0F60106
:100A300080819181E81AF90AC80FD91F00E010E0FF
:100A400022C08091E80085FD16C08091E8008B7778
:100A50008093E8009BD3C114D10449F0F601808152
:100A60009181800F911F9183808385E010C0C4D055
:100A7000882349F00CC08091F10089930894E10823
:100A8000F1080F5F1F4FE114F104D9F68B2DDF91B0
:100A9000CF911F910F91FF90EF90DF90CF90BF907B
:100AA0000895BF92CF92DF92EF92FF920F931F9320
:100AB000CF93DF93182F092F7B016A019DD0B82EA9
:100AC0008823B1F5812F902F9C01E901C114D10435
:100AD00039F0F60180819181E81AF90AC80FD91F0F
:100AE00000E010E022C08091E80085FD16C08091F2
:100AF000E8008E778093E80049D3C114D10449F00F
:100B0000F60180819181800F911F9183808385E020
:100B100010C072D0882349F00CC089918093F100F5
:100B20000894E108F1080F5F1F4FE114F104D9F6B2
:100B30008B2DDF91CF911F910F91FF90EF90DF9060
:100B4000CF90BF900895382F282F2EC0822F8F70FE
:100B50008093E900231721F4762F942F50E006C0EC
:100B60007091EC009091ED005091F00091FF1BC04E
:100B70008091EB008E7F8093EB008091ED008D7F64
:100B80008093ED008091EB0081608093EB00709387
:100B9000EC009093ED005093F0008091EE0087FD03
:100BA00002C080E008952F5F273080F23F703093BD
:100BB000E90081E0089580911B0188239CF404C022
:100BC00080911A018823B9F08091E80082FFF8CF64
:100BD0008091E8008B778093E800089580911A0156
:100BE000882349F08091E80080FFF8CF8091E800E9
:100BF0008E778093E80008954091E4005091E500DD
:100C000024E68091EC0080FF24C08091E80080FD04
:100C10001EC080911A01882311F482E00895853066
:100C200011F483E008958091EB0085FF02C081E01C
:100C300008958091E4009091E5008417950709F3E9
:100C4000222311F484E008952150AC01DACF80E032
:100C500008958091E80082FFDCCFF9CFEF92FF92F8
:100C60000F931F934FD056D008ED10E0F80180810C
:100C70008F77808380818068808380818F7D80836F
:100C800019BC10921A0110921601109218011092BC
:100C9000170180EEE82EF12CF70180818B7F808395
:100CA000F80180818160808380E060E042E34BDF77
:100CB000E1EEF0E080818E7F8083E2EEF0E08081E3
:100CC00081608083808188608083F70180818E7F4E
:100CD0008083F8018081806180831F910F91FF9054
:100CE000EF900895E8EDF0E080818F7E8083E7ED5E
:100CF000F0E080818160808384E082BF81E0809326
:100D00001901ACCFE8EDF0E080818E7F80831092F6
:100D1000E20008951092DA001092E10008951F9207
:100D20000F920FB60F9211242F933F934F935F931F
:100D30006F937F938F939F93AF93BF93EF93FF93A3
:100D40008091E10082FF0AC08091E20082FF06C02C
:100D50008091E1008B7F8093E10017D28091DA00CF
:100D600080FF1DC08091D80080FF19C08091DA00FB
:100D70008E7F8093DA008091D90080FF0CC080E1E3
:100D800089BD82E189BD09B400FEFDCF81E0809379
:100D90001A0116DA04C019BC10921A0112DA8091F5
:100DA000E10080FF18C08091E20080FF14C08091B4
:100DB000E2008E7F8093E2008091E2008061809368
:100DC000E2008091D80080628093D80019BC85E051
:100DD00080931A01DAD18091E10084FF2FC08091C5
:100DE000E20084FF2BC080E189BD82E189BD09B4A6
:100DF00000FEFDCF8091D8008F7D8093D800809138
:100E0000E1008F7E8093E1008091E2008F7E8093ED
:100E1000E2008091E20081608093E20080911601FF
:100E2000882311F084E007C08091E30087FD02C0B1
:100E300081E001C083E080931A01A7D18091E10095
:100E400083FF22C08091E20083FF1EC08091E100F9
:100E5000877F8093E10082E080931A01109216014F
:100E60008091E1008E7F8093E1008091E2008E7F8F
:100E70008093E2008091E20080618093E20080E054
:100E800060E042E360DE81D1FF91EF91BF91AF91CD
:100E90009F918F917F916F915F914F913F912F9192
:100EA0000F900FBE0F901F9018951F93DF93CF9355
:100EB000CDB7DEB7AC970FB6F894DEBF0FBECDBF8F
:100EC000EBE1F1E08091F100819321E0E332F20760
:100ED000C9F7BDDB8091E80083FF3FC180911B0112
:100EE00030911C01353009F48DC0363040F431307A
:100EF000E1F1313070F0333009F02FC136C03830B5
:100F000009F4FDC0393009F40CC1363009F025C1AF
:100F10009CC0803821F0823809F01FC108C0909130
:100F20001701809118018823B1F0926014C080915C
:100F30001F018F70873008F010C18093E900809105
:100F4000EB0090E025E0969587952A95E1F7982F9C
:100F500091701092E9008091E800877F8093E8000B
:100F60009093F1001092F100D5C0882319F08230DF
:100F700009F0F3C090E08F719070009721F0029714
:100F800009F0EBC00CC080911D01813009F0E5C073
:100F900010921801333081F5809318012DC0809193
:100FA0001D01882349F520911F012F70822F815048
:100FB000863008F0D2C02093E9008091EB0080FFDA
:100FC0001BC0333021F48091EB00806213C080910C
:100FD000EB0080618093EB0081E090E002C0880F1D
:100FE000991F2A95E2F78093EA001092EA00809117
:100FF000EB0088608093EB001092E9008091E8009C
:10100000877F8BC0882309F0A8C010911D011F772E
:101010008091E3008078812B8093E3008091E80049
:10102000877F8093E800C7DD8091E80080FFFCCFD8
:101030008091E30080688093E300112311F482E043
:1010400001C083E080931A0188C08058823008F084
:1010500084C080911D0190911E0123E08C3D920778
:1010600009F033C083E08C838AE28B837FB7F894E6
:10107000DE0115966EE040E050E011E2E62FF0E070
:1010800010935700849140FF03C082958F706F5F6B
:101090008F70282F30E08A3018F0C901C79602C03F
:1010A000C901C0968D939D934F5F5F4F44315105A9
:1010B00029F77FBF8091E800877F8093E800CE0109
:1010C00003966AE270E080DB14C060911F017091AA
:1010D0002001AE014F5F5F4F37DBBC01009709F481
:1010E0003CC08091E800877F8093E80089819A81E5
:1010F0001BDC8091E8008B778093E8002EC080385D
:1011000061F58091E800877F8093E8008091160167
:101110008093F1008091E8008E778093E8004BDDAA
:101120001CC08823D1F490911D019230B0F48091BD
:10113000E800877F8093E800909316013CDD809162
:101140001601882331F48091E30087FD02C081E01D
:1011500001C084E080931A01C2DA8091E80083FF25
:101160000AC08091E800877F8093E8008091EB00BF
:1011700080628093EB00AC960FB6F894DEBF0FBE92
:10118000CDBFCF91DF911F91089508951F93809156
:101190001A01882371F01091E9008091EC001092FF
:1011A000E9008091E80083FF01C07FDE1F7010938B
:1011B000E9001F910895FC0107C08091C80085FFD8
:1011C000FCCF9093CE00319690819923B1F708958A
:0411D000F894FFCFC1
:0E11D40049276D20526561647921003F0000BB
:00000001FF
